{
  "_format": "hh-sol-artifact-1",
  "contractName": "FileSharing",
  "sourceName": "contracts/FileSharing.sol",
  "abi": [
    {
      "inputs": [
        {
          "internalType": "string",
          "name": "publickey",
          "type": "string"
        },
        {
          "internalType": "string",
          "name": "privatekey",
          "type": "string"
        }
      ],
      "name": "createUser",
      "outputs": [],
      "stateMutability": "nonpayable",
      "type": "function"
    },
    {
      "inputs": [],
      "name": "getFiles",
      "outputs": [
        {
          "components": [
            {
              "internalType": "string",
              "name": "fileName",
              "type": "string"
            },
            {
              "internalType": "string",
              "name": "senderName",
              "type": "string"
            },
            {
              "internalType": "string",
              "name": "description",
              "type": "string"
            },
            {
              "internalType": "string",
              "name": "hash",
              "type": "string"
            }
          ],
          "internalType": "struct FileSharing.File[]",
          "name": "",
          "type": "tuple[]"
        }
      ],
      "stateMutability": "view",
      "type": "function"
    },
    {
      "inputs": [],
      "name": "getPrivateKey",
      "outputs": [
        {
          "internalType": "string",
          "name": "",
          "type": "string"
        }
      ],
      "stateMutability": "view",
      "type": "function"
    },
    {
      "inputs": [],
      "name": "getPublicKey",
      "outputs": [
        {
          "internalType": "string",
          "name": "",
          "type": "string"
        }
      ],
      "stateMutability": "view",
      "type": "function"
    },
    {
      "inputs": [],
      "name": "getReceivedFiles",
      "outputs": [
        {
          "components": [
            {
              "internalType": "string",
              "name": "fileName",
              "type": "string"
            },
            {
              "internalType": "string",
              "name": "senderName",
              "type": "string"
            },
            {
              "internalType": "string",
              "name": "description",
              "type": "string"
            },
            {
              "internalType": "string",
              "name": "hash",
              "type": "string"
            }
          ],
          "internalType": "struct FileSharing.File[]",
          "name": "",
          "type": "tuple[]"
        }
      ],
      "stateMutability": "view",
      "type": "function"
    },
    {
      "inputs": [
        {
          "internalType": "address",
          "name": "receiver",
          "type": "address"
        }
      ],
      "name": "getReceiverPublicKey",
      "outputs": [
        {
          "internalType": "string",
          "name": "",
          "type": "string"
        }
      ],
      "stateMutability": "view",
      "type": "function"
    },
    {
      "inputs": [
        {
          "internalType": "address",
          "name": "receiver",
          "type": "address"
        },
        {
          "internalType": "string",
          "name": "fileName",
          "type": "string"
        },
        {
          "internalType": "string",
          "name": "senderName",
          "type": "string"
        },
        {
          "internalType": "string",
          "name": "description",
          "type": "string"
        },
        {
          "internalType": "string",
          "name": "ipfsHash",
          "type": "string"
        },
        {
          "internalType": "string",
          "name": "hash",
          "type": "string"
        }
      ],
      "name": "sendFile",
      "outputs": [],
      "stateMutability": "nonpayable",
      "type": "function"
    }
  ],
  "bytecode": "0x608060405234801561001057600080fd5b50611722806100206000396000f3fe608060405234801561001057600080fd5b506004361061007d5760003560e01c80635b67a5311161005b5780635b67a531146100da57806361f0b25f146100f8578063659a95d11461011657806387b162b5146101465761007d565b8063179536f2146100825780632da96d731461009e5780632e334452146100bc575b600080fd5b61009c60048036038101906100979190610f27565b610162565b005b6100a66103d5565b6040516100b391906111f9565b60405180910390f35b6100c46106b9565b6040516100d19190611265565b60405180910390f35b6100e261078d565b6040516100ef91906111f9565b60405180910390f35b610100610a71565b60405161010d9190611265565b60405180910390f35b610130600480360381019061012b9190611287565b610b46565b60405161013d9190611265565b60405180910390f35b610160600480360381019061015b91906112b4565b610c1c565b005b60008060008873ffffffffffffffffffffffffffffffffffffffff1673ffffffffffffffffffffffffffffffffffffffff16815260200190815260200160002080546101ad9061135b565b9050116101ef576040517f08c379a00000000000000000000000000000000000000000000000000000000081526004016101e6906113d8565b60405180910390fd5b6101f7610d47565b6040518060800160405280878152602001868152602001858152602001848152509050610222610d47565b6040518060800160405280888152602001878152602001868152602001848152509050600260003373ffffffffffffffffffffffffffffffffffffffff1673ffffffffffffffffffffffffffffffffffffffff16815260200190815260200160002082908060018154018082558091505060019003906000526020600020906004020160009091909190915060008201518160000190816102c391906115ae565b5060208201518160010190816102d991906115ae565b5060408201518160020190816102ef91906115ae565b50606082015181600301908161030591906115ae565b505050600360008973ffffffffffffffffffffffffffffffffffffffff1673ffffffffffffffffffffffffffffffffffffffff168152602001908152602001600020819080600181540180825580915050600190039060005260206000209060040201600090919091909150600082015181600001908161038691906115ae565b50602082015181600101908161039c91906115ae565b5060408201518160020190816103b291906115ae565b5060608201518160030190816103c891906115ae565b5050505050505050505050565b6060600260003373ffffffffffffffffffffffffffffffffffffffff1673ffffffffffffffffffffffffffffffffffffffff168152602001908152602001600020805480602002602001604051908101604052809291908181526020016000905b828210156106b057838290600052602060002090600402016040518060800160405290816000820180546104699061135b565b80601f01602080910402602001604051908101604052809291908181526020018280546104959061135b565b80156104e25780601f106104b7576101008083540402835291602001916104e2565b820191906000526020600020905b8154815290600101906020018083116104c557829003601f168201915b505050505081526020016001820180546104fb9061135b565b80601f01602080910402602001604051908101604052809291908181526020018280546105279061135b565b80156105745780601f1061054957610100808354040283529160200191610574565b820191906000526020600020905b81548152906001019060200180831161055757829003601f168201915b5050505050815260200160028201805461058d9061135b565b80601f01602080910402602001604051908101604052809291908181526020018280546105b99061135b565b80156106065780601f106105db57610100808354040283529160200191610606565b820191906000526020600020905b8154815290600101906020018083116105e957829003601f168201915b5050505050815260200160038201805461061f9061135b565b80601f016020809104026020016040519081016040528092919081815260200182805461064b9061135b565b80156106985780601f1061066d57610100808354040283529160200191610698565b820191906000526020600020905b81548152906001019060200180831161067b57829003601f168201915b50505050508152505081526020019060010190610436565b50505050905090565b606060008060003373ffffffffffffffffffffffffffffffffffffffff1673ffffffffffffffffffffffffffffffffffffffff16815260200190815260200160002080546107069061135b565b80601f01602080910402602001604051908101604052809291908181526020018280546107329061135b565b801561077f5780601f106107545761010080835404028352916020019161077f565b820191906000526020600020905b81548152906001019060200180831161076257829003601f168201915b505050505090508091505090565b6060600360003373ffffffffffffffffffffffffffffffffffffffff1673ffffffffffffffffffffffffffffffffffffffff168152602001908152602001600020805480602002602001604051908101604052809291908181526020016000905b82821015610a6857838290600052602060002090600402016040518060800160405290816000820180546108219061135b565b80601f016020809104026020016040519081016040528092919081815260200182805461084d9061135b565b801561089a5780601f1061086f5761010080835404028352916020019161089a565b820191906000526020600020905b81548152906001019060200180831161087d57829003601f168201915b505050505081526020016001820180546108b39061135b565b80601f01602080910402602001604051908101604052809291908181526020018280546108df9061135b565b801561092c5780601f106109015761010080835404028352916020019161092c565b820191906000526020600020905b81548152906001019060200180831161090f57829003601f168201915b505050505081526020016002820180546109459061135b565b80601f01602080910402602001604051908101604052809291908181526020018280546109719061135b565b80156109be5780601f10610993576101008083540402835291602001916109be565b820191906000526020600020905b8154815290600101906020018083116109a157829003601f168201915b505050505081526020016003820180546109d79061135b565b80601f0160208091040260200160405190810160405280929190818152602001828054610a039061135b565b8015610a505780601f10610a2557610100808354040283529160200191610a50565b820191906000526020600020905b815481529060010190602001808311610a3357829003601f168201915b505050505081525050815260200190600101906107ee565b50505050905090565b60606000600160003373ffffffffffffffffffffffffffffffffffffffff1673ffffffffffffffffffffffffffffffffffffffff1681526020019081526020016000208054610abf9061135b565b80601f0160208091040260200160405190810160405280929190818152602001828054610aeb9061135b565b8015610b385780601f10610b0d57610100808354040283529160200191610b38565b820191906000526020600020905b815481529060010190602001808311610b1b57829003601f168201915b505050505090508091505090565b606060008060008473ffffffffffffffffffffffffffffffffffffffff1673ffffffffffffffffffffffffffffffffffffffff1681526020019081526020016000208054610b939061135b565b80601f0160208091040260200160405190810160405280929190818152602001828054610bbf9061135b565b8015610c0c5780601f10610be157610100808354040283529160200191610c0c565b820191906000526020600020905b815481529060010190602001808311610bef57829003601f168201915b5050505050905080915050919050565b60008060003373ffffffffffffffffffffffffffffffffffffffff1673ffffffffffffffffffffffffffffffffffffffff1681526020019081526020016000208054610c679061135b565b90501115610caa576040517f08c379a0000000000000000000000000000000000000000000000000000000008152600401610ca1906116cc565b60405180910390fd5b816000803373ffffffffffffffffffffffffffffffffffffffff1673ffffffffffffffffffffffffffffffffffffffff1681526020019081526020016000209081610cf591906115ae565b5080600160003373ffffffffffffffffffffffffffffffffffffffff1673ffffffffffffffffffffffffffffffffffffffff1681526020019081526020016000209081610d4291906115ae565b505050565b6040518060800160405280606081526020016060815260200160608152602001606081525090565b6000604051905090565b600080fd5b600080fd5b600073ffffffffffffffffffffffffffffffffffffffff82169050919050565b6000610dae82610d83565b9050919050565b610dbe81610da3565b8114610dc957600080fd5b50565b600081359050610ddb81610db5565b92915050565b600080fd5b600080fd5b6000601f19601f8301169050919050565b7f4e487b7100000000000000000000000000000000000000000000000000000000600052604160045260246000fd5b610e3482610deb565b810181811067ffffffffffffffff82111715610e5357610e52610dfc565b5b80604052505050565b6000610e66610d6f565b9050610e728282610e2b565b919050565b600067ffffffffffffffff821115610e9257610e91610dfc565b5b610e9b82610deb565b9050602081019050919050565b82818337600083830152505050565b6000610eca610ec584610e77565b610e5c565b905082815260208101848484011115610ee657610ee5610de6565b5b610ef1848285610ea8565b509392505050565b600082601f830112610f0e57610f0d610de1565b5b8135610f1e848260208601610eb7565b91505092915050565b60008060008060008060c08789031215610f4457610f43610d79565b5b6000610f5289828a01610dcc565b965050602087013567ffffffffffffffff811115610f7357610f72610d7e565b5b610f7f89828a01610ef9565b955050604087013567ffffffffffffffff811115610fa057610f9f610d7e565b5b610fac89828a01610ef9565b945050606087013567ffffffffffffffff811115610fcd57610fcc610d7e565b5b610fd989828a01610ef9565b935050608087013567ffffffffffffffff811115610ffa57610ff9610d7e565b5b61100689828a01610ef9565b92505060a087013567ffffffffffffffff81111561102757611026610d7e565b5b61103389828a01610ef9565b9150509295509295509295565b600081519050919050565b600082825260208201905092915050565b6000819050602082019050919050565b600081519050919050565b600082825260208201905092915050565b60005b838110156110a657808201518184015260208101905061108b565b60008484015250505050565b60006110bd8261106c565b6110c78185611077565b93506110d7818560208601611088565b6110e081610deb565b840191505092915050565b6000608083016000830151848203600086015261110882826110b2565b9150506020830151848203602086015261112282826110b2565b9150506040830151848203604086015261113c82826110b2565b9150506060830151848203606086015261115682826110b2565b9150508091505092915050565b600061116f83836110eb565b905092915050565b6000602082019050919050565b600061118f82611040565b611199818561104b565b9350836020820285016111ab8561105c565b8060005b858110156111e757848403895281516111c88582611163565b94506111d383611177565b925060208a019950506001810190506111af565b50829750879550505050505092915050565b600060208201905081810360008301526112138184611184565b905092915050565b600082825260208201905092915050565b60006112378261106c565b611241818561121b565b9350611251818560208601611088565b61125a81610deb565b840191505092915050565b6000602082019050818103600083015261127f818461122c565b905092915050565b60006020828403121561129d5761129c610d79565b5b60006112ab84828501610dcc565b91505092915050565b600080604083850312156112cb576112ca610d79565b5b600083013567ffffffffffffffff8111156112e9576112e8610d7e565b5b6112f585828601610ef9565b925050602083013567ffffffffffffffff81111561131657611315610d7e565b5b61132285828601610ef9565b9150509250929050565b7f4e487b7100000000000000000000000000000000000000000000000000000000600052602260045260246000fd5b6000600282049050600182168061137357607f821691505b6020821081036113865761138561132c565b5b50919050565b7f55736572206e6f7420696e207468652044415050000000000000000000000000600082015250565b60006113c260148361121b565b91506113cd8261138c565b602082019050919050565b600060208201905081810360008301526113f1816113b5565b9050919050565b60008190508160005260206000209050919050565b60006020601f8301049050919050565b600082821b905092915050565b60006008830261145a7fffffffffffffffffffffffffffffffffffffffffffffffffffffffffffffffff8261141d565b611464868361141d565b95508019841693508086168417925050509392505050565b6000819050919050565b6000819050919050565b60006114ab6114a66114a18461147c565b611486565b61147c565b9050919050565b6000819050919050565b6114c583611490565b6114d96114d1826114b2565b84845461142a565b825550505050565b600090565b6114ee6114e1565b6114f98184846114bc565b505050565b5b8181101561151d576115126000826114e6565b6001810190506114ff565b5050565b601f82111561156257611533816113f8565b61153c8461140d565b8101602085101561154b578190505b61155f6115578561140d565b8301826114fe565b50505b505050565b600082821c905092915050565b600061158560001984600802611567565b1980831691505092915050565b600061159e8383611574565b9150826002028217905092915050565b6115b78261106c565b67ffffffffffffffff8111156115d0576115cf610dfc565b5b6115da825461135b565b6115e5828285611521565b600060209050601f8311600181146116185760008415611606578287015190505b6116108582611592565b865550611678565b601f198416611626866113f8565b60005b8281101561164e57848901518255600182019150602085019450602081019050611629565b8683101561166b5784890151611667601f891682611574565b8355505b6001600288020188555050505b505050505050565b7f5573657220416c72656164792050726573656e74000000000000000000000000600082015250565b60006116b660148361121b565b91506116c182611680565b602082019050919050565b600060208201905081810360008301526116e5816116a9565b905091905056fea2646970667358221220c8dd86994c9200066a90749791446934bdea29370252c6e7ad3e6ec4790db55864736f6c63430008110033",
  "linkReferences": {},
  "deployedLinkReferences": {}
}